:020000040800F2
:1000000098060020CD010008110400081304000820
:10001000170400081B0400081F040008000000006B
:1000200000000000000000000000000023040008A1
:100030002504000800000000270400082904000827
:10004000E7010008E7010008E7010008E7010008F0
:10005000E7010008E7010008E7010008E7010008E0
:10006000E7010008E7010008E7010008E7010008D0
:10007000E7010008E7010008E7010008E7010008C0
:10008000E7010008E7010008E7010008E7010008B0
:10009000E7010008E7010008E7010008E7010008A0
:1000A000E7010008E7010008E7010008E701000890
:1000B000E7010008E7010008E7010008E701000880
:1000C000E7010008E7010008E7010008E701000870
:1000D000E7010008E7010008E7010008E701000860
:1000E000E7010008E7010008E7010008E701000850
:1000F000E7010008E7010008E7010008E701000840
:10010000E7010008E7010008E7010008E70100082F
:10011000E7010008E7010008E7010008E70100081F
:10012000E7010008E7010008E7010008E70100080F
:1001300000F002F800F03AF80AA090E8000C8244BF
:100140008344AAF10107DA4501D100F02FF8AFF29C
:10015000090EBAE80F0013F0010F18BFFB1A43F0A5
:1001600001031847B8120000D8120000103A24BF4B
:1001700078C878C1FAD8520724BF30C830C144BF0C
:1001800004680C607047000000230024002500264E
:10019000103A28BF78C1FBD8520728BF30C148BFEA
:1001A0000B6070471FB51FBD10B510BD01F0FEF804
:1001B0001146FFF7F7FF00F00DF901F01CF903B449
:1001C000FFF7F2FF03BC01F021F900000948804766
:1001D00009480047FEE7FEE7FEE7FEE7FEE7FEE729
:1001E000FEE7FEE7FEE7FEE704480549054A064B41
:1001F00070470000D5020008310100089800002077
:10020000980600209802002098020020002100207B
:10021000674A126842F48032654B1A6000BF644A34
:10022000126802F40030491C10B9B1F5A06FF6D184
:100230005F4A126812F4003F01D0012000E0002064
:10024000012842D15B4A126842F01002594B1A60F1
:100250001A46126822F003021A601A46126842F027
:1002600002021A60524A5268514B5A601A4652684A
:100270005A601A46526842F480625A601A465268BE
:1002800022F47C125A601A46526842F4E8125A600C
:100290001A46126842F080721A6000BF444A12681F
:1002A00012F0007FFAD0424A526822F00302404B1B
:1002B0005A601A46526842F002025A6000BF3C4A35
:1002C000526802F00C02082AF9D1704710B5FFF706
:1002D0009DFF10BD10B53648006840F0010034495C
:1002E000086008464068344908403149486008467B
:1002F0000068324908402E4908600846006820F42A
:10030000802008600846406820F4FE0048604FF4F2
:100310001F008860FFF7DAFF4FF00060284908608F
:1003200010BD10B5002100200022214B5B6803F0B6
:100330000C0121B1042906D0082928D107E0214B5E
:10034000214C236027E01F4B1F4C236023E0184BF8
:100350005B6803F47010164B5B6803F48032022371
:1003600003EB904022B9194B4343174C23600DE037
:100370000F4B5B6813F4003F04D0144B4343124C03
:10038000236003E00F4B43430F4C236003E00D4B0E
:100390000D4C236000BF00BF054B5B68C3F3031324
:1003A0000B4CE15C084B1B68CB40074C236010BD35
:1003B00000100240002002400000FFF8FFFFF6FEA0
:1003C00008ED00E000127A000000002000093D0066
:1003D0000400002000F0B2FF00F07CFE12E000F00C
:1003E000C3FE4FF6FF71084800F034F900210648BB
:1003F00000F030F9AA2000F089FE034800F010F95F
:1004000002490870EBE70000001C014014000020C6
:10041000704700BFFEE700BFFEE700BFFEE700BF7A
:10042000FEE77047704770477047000010B50446FC
:10043000CA48844208D10121042000F023FB002196
:10044000042000F01FFB46E0C548844208D101218A
:10045000082000F017FB0021082000F013FB3AE011
:10046000C048844208D10121102000F00BFB00217C
:10047000102000F007FB2EE0BB48844208D1012188
:10048000202000F0FFFA0021202000F0FBFA22E0FB
:10049000B648844208D10121402000F0F3FA00213F
:1004A000402000F0EFFA16E0B148844208D1012163
:1004B000802000F0E7FA0021802000F0E3FA0AE053
:1004C000AC48844207D10121801500F0DBFA0021FD
:1004D000A01500F0D7FA10BD10B50121084600F0B4
:1004E000D1FA0021012000F0CDFA10BD2DE9F04134
:1004F000024600250026002000230024002791F852
:1005000003C00CF00F0591F803C01CF0100F03D0CE
:1005100091F802C04CEA050591F800C0BCF1000F4B
:1005200031D0146800202BE04FF0010C0CFA00F3DE
:10053000B1F800C00CEA03069E4220D183004FF0C0
:100540000F0C0CFA03F7BC4305FA03FC4CEA040455
:1005500091F803C0BCF1280F06D14FF0010C0CFA42
:1005600000FCC2F814C00AE091F803C0BCF1480FC7
:1005700005D14FF0010C0CFA00FCC2F810C0401C71
:100580000828D1D31460B1F800C0BCF1FF0F34DDEE
:10059000546800202EE000F1080C4FF0010808FA22
:1005A0000CF3B1F800C00CEA03069E4221D183008F
:1005B0004FF00F0C0CFA03F7BC4305FA03FC4CEAAE
:1005C000040491F803C0BCF1280F05D100F1080C18
:1005D00008FA0CF8C2F8148091F803C0BCF1480F77
:1005E00007D100F1080C4FF0010808FA0CF8C2F826
:1005F0001080401C0828CED35460BDE8F0814FF62F
:10060000FF710180022181700421C1707047024690
:10061000002093680B4201D0012000E000207047C9
:100620000146886880B2704702460020D3680B42BA
:1006300001D0012000E0002070470146C86880B268
:10064000704701617047416170470AB1016100E084
:1006500041617047C16070474FF480320A43826144
:100660008161826182698269704702460020424B43
:1006700018684FF68073184040EA021008433E4B5A
:10068000186070473D49C8617047F0B50A460023BD
:1006900000240021002500F00046B6F1004F02D1F1
:1006A000354EF16901E0344E7168C0F3034583B201
:1006B00000F44016B6F5401F08D121F070612E4EAF
:1006C000766826F070662C4F7E6012E000F480168B
:1006D000B6F5801F06D1032606FA05F4A14341F0C2
:1006E000706106E0460D360103FA06F6B14341F0AB
:1006F000706122B1460D360103FA06F6314300F06F
:100700000046B6F1004F02D11B4EF16101E01A4ED6
:100710007160F0BD30B500228B071C0F0F2303FA68
:1007200004F2154B08338C1053F824309343124CC9
:1007300008348D1044F8253023468C1053F82430AB
:100740008C07240F00FA04F423430B4C08348D105B
:1007500044F8253030BD0A49086070470008014060
:10076000000C01400010014000140140001801403D
:10077000001C014000200140000001400000204218
:10078000DC002042DB48006840F00100D9490860E5
:1007900008464068D8490840D6494860084600687D
:1007A000D6490840D34908600846006820F48020F4
:1007B00008600846406820F4FE0048604FF41F00BF
:1007C00088607047CB49096821F48031C94A1160BB
:1007D0001146096821F480211160B0F5803F03D0F3
:1007E000B0F5802F0ED106E0C249096841F480318E
:1007F000C04A116007E0BF49096841F4A021BD4A21
:10080000116000E000BF00BF704710B50146002234
:10081000002300204A11012A02D1B64C236806E0C9
:10082000022A02D1B34C236A01E0B24C636A01F0A0
:100830001F02012494401C4201D0012000E000204E
:1008400010BD70B500240025002600BF3120FFF741
:10085000DCFF0646641CB4F5A06F01D0002EF5D075
:100860003120FFF7D2FF08B1012500E0002528461E
:1008700070BD014600209F4A106820F0F80040EA51
:10088000C100106070479E49086070470246002012
:10089000984B586820F47C1042EA01031843954BAA
:1008A0005860704796490866704701460020914A93
:1008B000506820F003000843506070478D4840683E
:1008C00000F00C007047014600208A4A506820F072
:1008D000F00008435060704701460020854A506888
:1008E00020F4E06008435060704701460020814AD0
:1008F000506820F4605040EAC1005060704729B150
:100900007C4A527A02437B4B5A7204E0794A527A0B
:100910008243784B5A7270477A49086070470146A3
:100920000020744A506820F44040084350607047EB
:100930000021754A11706F4A82F82010012802D0F8
:10094000042808D103E001216F4A117004E0052159
:100950006D4A117000E000BF00BF70476B4908602E
:1009600070476449096A0143624A116270476749E6
:1009700044390860704730B500210022002400236C
:100980005C4D6D6805F00C0121B1042905D00829E2
:1009900023D105E05E4D056022E05D4D05601FE05E
:1009A000544D6D6805F47012524D6D6805F4803435
:1009B000022505EB92421CB9564D554305600BE0EC
:1009C0004C4D6D6815F4003F03D0524D5543056002
:1009D00002E04F4D5543056002E04D4D056000BFFC
:1009E00000BF444D6D6805F0F00109094A4D6B5C8C
:1009F0000568DD4045603F4D6D6805F4E061090A1A
:100A0000454D6B5C4568DD4085603A4D6D6805F489
:100A10006051C90A404D6B5C4568DD40C560354D8D
:100A20006D6805F44041890B3C4D6B5CC568B5FBB6
:100A3000F3F5056130BD29B12E4A526902432D4BB1
:100A40005A6104E02B4A526982432A4B5A6170472B
:100A500029B1284A92690243264B9A6104E0254A4B
:100A600092698243234B9A61704729B1214AD26926
:100A70000243204BDA6104E01E4AD26982431D4BD7
:100A8000DA61704729B11B4AD2680243194BDA6018
:100A900004E0184AD2688243164BDA60704729B1E5
:100AA000144A12690243134B1A6104E0114A126995
:100AB0008243104B1A6170471449403908607047EF
:100AC0000F49C86470470B49C87170470948406AAC
:100AD00040F0807007494862704701460020054A8F
:100AE00092680A4201D0012000E0002070470149CD
:100AF00088727047001002400000FFF8FFFFF6FE0A
:100B000000004242D800424220100240800442428B
:100B100000127A0000093D00150000202500002089
:100B200001460020FE4A106800F0380008431060BB
:100B30007047FB49096821F00801F94A1160114624
:100B40000968014311607047F549096821F01001F7
:100B5000F34A116011460968014311607047F1487A
:100B6000EF494860F04848607047EE48EC494860FB
:100B7000ED4848607047EA48006940F08000E84965
:100B800008617047E648006940F08000E449086168
:100B900070470420E249C96811F0010F01D001201B
:100BA0000EE0DF49C96811F0040F01D0022007E010
:100BB000DB49C96811F0100F01D0032000E00420C8
:100BC000704700B502460423FFF7E3FF034603E046
:100BD000FFF7DFFF0346521E012B01D1002AF7D198
:100BE00002B90523184600BD30B5044604254FF46C
:100BF0003020FFF7E6FF0546042D17D1C8480069ED
:100C000040F00200C649086108464461006940F0AE
:100C1000400008614FF43020FFF7D3FF0546C0487D
:100C2000006941F6FD710840BD490861284630BDA4
:100C300010B504244FF43020FFF7C3FF0446042C02
:100C400016D1B748006940F00400B549086108466C
:100C5000006940F0400008614FF43020FFF7B1FF19
:100C60000446AF48006941F6FB710840AC49086191
:100C7000204610BD00B502460423FFF78AFF034655
:100C800003E0FFF786FF0346521E012B01D1002A25
:100C9000F7D102B90523184600BD10B504244FF45E
:100CA0003020FFF7E7FF0446042C16D19C4800696A
:100CB00040F004009A4908610846006940F040008D
:100CC00008614FF43020FFF7D5FF044694480069CF
:100CD00041F6FB71084092490861204610BD002092
:100CE0008F49C96911F0020F01D0012000E00020F6
:100CF000704730B5A5250424FFF7F1FF00B10025AA
:100D00004FF43020FFF75DFF0446042C3AD18548AC
:100D100083498860844888600846006940F0200064
:100D200008610846006940F0400008614FF4302037
:100D3000FFF747FF0446042C1BD17948006941F6B0
:100D4000DF710840764908610846006940F01000EC
:100D5000086176480580E002FFF733FF0446052C62
:100D600010D06F48006941F6EF7108406C49086186
:100D700008E0052C06D06A48006941F6EF7108408A
:100D800067490861204630BDF0B504460D4604268B
:100D90000027F002FFF715FF0646042E22D1604817
:100DA000006940F001005E4908612580F002FFF70C
:100DB00008FF0646042E0ED1A71C280C3880F0022E
:100DC000FFF7FFFE06465648006941F6FE710840EF
:100DD0005349086106E05248006941F6FE71084037
:100DE0004F4908613046F0BD70B504460D460426F3
:100DF000F002FFF7E6FE0646042E11D148480069CE
:100E000040F00100464908612580F002FFF7D9FE55
:100E100006464348006941F6FE71084040490861B2
:100E2000304670BD70B505460E460424E002FFF75B
:100E3000C8FE0446042C17D13A48394988603A481C
:100E400088600846006940F0100008612E80E002CA
:100E5000FFF7B7FE0446052C06D03148006941F67D
:100E6000EF7108402E490861204670BD2DE9F0431E
:100E700004464FF6FF763746B046B1460425E443B4
:100E8000E6B2C4F30727C4F307484FEA1469E8023F
:100E9000FFF797FE0546042D40D12248204988607F
:100EA000214888600846006940F010000861FF2E64
:100EB00006D01E4808300680E802FFF782FE05468D
:100EC000042D08D1FF2F06D018480A300780E80209
:100ED000FFF777FE0546042D0AD1B8F1FF0F07D0C2
:100EE00012480C30A0F80080E802FFF76AFE0546C1
:100EF000042D0AD1B9F1FF0F07D00C480E30A0F82D
:100F00000090E802FFF75DFE0546052D06D0044877
:100F1000006941F6EF71084001490861284607E081
:100F20000020024023016745AB89EFCD00F8FF1F89
:100F3000BDE8F08330B5054604244FF43020FFF7B8
:100F400040FE0446042C41D15E485F4988605F48FA
:100F500088600846006940F0200008610846006982
:100F600040F0400008614FF43020FFF72AFE0446AD
:100F7000042C22D15448006941F6DF7108405249DF
:100F800008610846006940F0100008611DB10020AA
:100F90004F49088002E0A5204D4908804FF43020D9
:100FA000FFF70FFE0446052C10D04748006941F6B4
:100FB000EF7108404449086108E0052C06D042481A
:100FC000006941F6DF7108403F490861204630BDA5
:100FD000F0B505460E46174604243A483A4988605B
:100FE0003A488860E002FFF7ECFD0446042C19D172
:100FF0003548006940F010003349086147F0F800B7
:10100000304328433249891C0880E002FFF7D9FDAC
:101010000446052C06D02C48006941F6EF710840C3
:10102000294908612046F0BD2748C06980087047FB
:101030002548006A704700202349096811F0200FF5
:1010400001D0012000E00020704729B11E4A12693A
:1010500002431D4B1A6104E01B4A126982431A4B7A
:101060001A61704701460020012908D1164AD26949
:1010700012F0010F01D0012008E0002006E0124A22
:10108000D2680A4201D0012000E0002070470E49DA
:10109000C860704704200C49C96811F0010F01D0E5
:1010A00001200EE00849C96811F0040F01D00220A8
:1010B00007E00549C96811F0100F01D0032000E0D6
:1010C000042070472301674500200240AB89EFCD23
:1010D00000F8FF1F38B501218020FFF7B9FC00247C
:1010E00011E0012505FA04F085B2ADF800500320A7
:1010F0008DF8020010208DF8030069468A48FFF73A
:10110000F5F9601C84B20B2CEBDB38BD70B50546DD
:101110000124002617E004EA0500A04205D10122BF
:1011200021468148FFF791FA09E004EA0500E1430E
:10113000884204D1002221467B48FFF786FA6006E8
:10114000040E701CC6B2082EE5DB70BD70B5764883
:10115000FFF766FA0446E5B2284670BD00BF0100FD
:10116000A0F10100FBD1704710B54FF480716E48BB
:10117000FFF767FA6D48FFF7F1FF4FF480716A4897
:10118000FFF761FA4FF400716748FFF75AFA6748B2
:10119000FFF7E4FF4FF400716348FFF754FA4FF490
:1011A00080616148FFF74DFA6048FFF7D7FF4FF4C1
:1011B00080615D48FFF747FA10BD08B501210420A2
:1011C000FFF746FC01212020FFF742FC012104200B
:1011D000FFF73EFC4FF48070ADF8000004208DF85E
:1011E000030069465248FFF781F90820ADF8000076
:1011F00004208DF8030069464E48FFF777F9012077
:10120000ADF8000004208DF8030069464848FFF758
:101210006DF908BD10B54FF480714548FFF7F7F937
:1012200020B901214048FFF70EFA0AE04FF480711F
:101230003F48FFF7ECF9012803D101213A48FFF7B5
:1012400000FA08213B48FFF7E2F990B93748FFF769
:1012500085FF08213748FFF7DAF950B9364840785A
:10126000012803D100203449487002E001203249AE
:10127000487031484078012804D102212A48FFF7FC
:10128000E2F903E002212848FFF7DBF908212648AC
:10129000FFF7BDF998B94FF6FF70FFF75FFF082120
:1012A0002148FFF7B4F950B923488078012803D1C9
:1012B00000202149887002E001201F4988701E48E3
:1012C000806800F6FF701C49886008468068B0F5A9
:1012D000401F01D3002088601748807801281DD165
:1012E00015484068401C1449486008464068B0F5FD
:1012F000407F01D3002048600F4880680E4949684C
:10130000C1EB0131884204D908210748FFF799F958
:1013100008E008210448FFF796F903E00821024895
:10132000FFF78FF910BD0000001C0140FFFF0F0008
:1013300000080140001401402C00002010B5FFF708
:1013400021FA4FF48030FFF73DFA00BF3120FFF75C
:101350005CFA0028FAD01020FFF7F6FB0220FFF716
:10136000DFFB0020FFF7AFFA0020FFF7BEFA4FF4D3
:101370008060FFF7B1FA4FF4E0114FF48030FFF7CF
:1013800085FA0120FFF78EFA00BF3920FFF73DFAFA
:101390000028FAD00220FFF788FA00BFFFF78EFA84
:1013A0000828FBD110BD704770477047754600F0A4
:1013B00029F8AE4605006946534620F007008546E9
:1013C00018B020B5FEF710FFBDE820404FF0000632
:1013D0004FF000074FF000084FF0000B21F007011D
:1013E000AC46ACE8C009ACE8C009ACE8C009ACE860
:1013F000C0098D4670470446AFF300802046FEF7D3
:10140000DEFE000000487047380000200149182027
:10141000ABBEFEE726000200704700003C14000847
:10142000000000202C0000006C0100086814000877
:101430002C0000206C0600008801000800A24A046D
:101440000000000000000000010203040607080974
:101450000000000000010203040102030406070863
:08146000090204060800000067
:0400000508000131BD
:00000001FF
